8=FIX.4.4|9=65|35=A|34=1|49=CLIENT2|52=20131211-15:51:42.032|56=EX1|98=0|108=30|10=178|
8=FIX.4.4|9=65|35=A|34=1|49=EX1|52=20131211-15:51:42.080|56=CLIENT2|98=0|108=30|10=181|
8=FIX.4.4|9=173|35=D|34=2|49=CLIENT2|52=20131211-15:52:07.443|56=EX1|11=1386777108538|21=1|38=1000|40=1|54=1|55=GC|59=0|60=20131211-15:51:56.051|107=GOLD FUTURE|202=55.6|460=2|541=20140301|10=233|
8=FIX.4.4|9=53|35=0|34=2|49=EX1|52=20131211-15:52:12.701|56=CLIENT2|10=135|
8=FIX.4.4|9=53|35=0|34=3|49=CLIENT2|52=20131211-15:52:40.159|56=EX1|10=144|
8=FIX.4.4|9=151|35=D|34=4|49=CLIENT2|52=20131211-15:52:40.164|56=EX1|11=1386777154414|21=1|38=2000|40=1|54=1|55=VOD.L|59=0|60=20131211-15:52:40.160|107=VODAFONE|460=5|10=228|
8=FIX.4.4|9=53|35=0|34=3|49=EX1|52=20131211-15:52:43.700|56=CLIENT2|10=139|
8=FIX.4.4|9=159|35=D|34=5|49=CLIENT2|52=20131211-15:53:08.075|56=EX1|11=1386777188078|21=1|38=5000|40=2|44=94.3|54=1|55=BAC.L|59=0|60=20131211-15:53:08.075|107=BARCLAYS|460=5|10=094|
8=FIX.4.4|9=53|35=0|34=4|49=EX1|52=20131211-15:53:13.700|56=CLIENT2|10=138|
8=FIX.4.4|9=151|35=D|34=6|49=CLIENT2|52=20131211-15:53:24.835|56=EX1|11=1386777204839|21=1|38=5000|40=1|54=1|55=BAC.L|59=3|60=20131211-15:53:24.834|107=BARCLAYS|460=5|10=226|
8=FIX.4.4|9=190|35=D|34=7|49=CLIENT2|52=20131211-15:53:40.892|56=EX1|11=1386777220898|21=1|38=8200|40=1|54=2|55=TIPS|59=1|60=20131211-15:53:40.892|107=T-NOTE 0.625% 15-Jul-2014|223=0.625|460=6|541=20140715|10=165|
8=FIX.4.4|9=53|35=0|34=5|49=EX1|52=20131211-15:53:43.702|56=CLIENT2|10=144|
8=FIX.4.4|9=156|35=D|34=8|49=CLIENT2|52=20131211-15:54:00.011|56=EX1|11=1386777240016|21=1|38=200|40=1|54=5|55=VOD.L|59=0|60=20131211-15:54:00.010|107=VODAFONE|114=N|460=5|10=202|
8=FIX.4.4|9=151|35=D|34=9|49=CLIENT2|52=20131211-15:54:09.042|56=EX1|11=1386777249049|21=1|38=3500|40=1|54=8|55=VOD.L|59=0|60=20131211-15:54:09.041|107=VODAFONE|460=5|10=006|
8=FIX.4.4|9=168|35=D|34=2|49=CLIENT2|52=20131211-16:12:22.342|56=EX1|11=1386778342236|12=11.5|21=1|38=11500|40=1|54=1|55=VOD.L|59=0|60=20131211-16:12:22.323|107=VODAFONE|460=5|479=USD|10=078|
8=FIX.4.4|9=53|35=0|34=6|49=EX1|52=20131211-15:54:14.702|56=CLIENT2|10=144|