8=FIX.4.2|9=65|35=A|34=1|49=CLIENT1|52=20131210-11:45:57.868|56=EX1|98=0|108=30|10=196|
8=FIX.4.2|9=65|35=A|34=1|49=EX1|52=20131210-11:45:57.943|56=CLIENT1|98=0|108=30|10=190|
8=FIX.4.2|9=133|35=D|34=2|49=CLIENT1|52=20131210-11:46:09.749|56=EX1|11=1386675969706|21=1|38=25000|40=1|54=1|55=VOD.L|59=0|60=20131210-11:46:09.740|10=001|
8=FIX.4.2|9=139|35=D|34=3|49=CLIENT1|52=20131210-11:46:15.640|56=EX1|11=1386675975641|21=1|38=25000|40=1|54=5|55=VOD.L|59=0|60=20131210-11:46:15.639|114=N|10=032|
8=FIX.4.2|9=53|35=0|34=2|49=EX1|52=20131210-11:46:28.403|56=CLIENT1|10=136|
8=FIX.4.2|9=146|35=D|34=4|49=CLIENT1|52=20131210-11:46:37.903|56=EX1|11=1386675997905|21=1|38=5000|40=3|54=5|55=BAC.L|59=0|60=20131210-11:46:37.902|99=96.5|114=N|10=088|
8=FIX.4.2|9=141|35=D|34=5|49=CLIENT1|52=20131210-11:46:52.626|56=EX1|11=1386676012630|21=1|38=5000|40=2|44=103.4|54=2|55=BAC.L|59=3|60=20131210-11:46:52.626|10=048|
8=FIX.4.2|9=53|35=0|34=3|49=EX1|52=20131210-11:46:59.403|56=CLIENT1|10=141|
8=FIX.4.2|9=134|35=F|34=6|49=CLIENT1|52=20131210-11:47:01.418|56=EX1|11=1386676021421|38=5000|41=1386676012630|54=2|55=BAC.L|60=20131210-11:47:01.417|10=073|
8=FIX.4.2|9=134|35=F|34=7|49=CLIENT1|52=20131210-11:47:04.142|56=EX1|11=1386676024148|38=5000|41=1386676012630|54=2|55=BAC.L|60=20131210-11:47:04.142|10=078|
8=FIX.4.2|9=53|35=0|34=4|49=EX1|52=20131210-11:47:30.402|56=CLIENT1|10=131|
8=FIX.4.2|9=53|35=0|34=8|49=CLIENT1|52=20131210-11:47:34.842|56=EX1|10=147|
8=FIX.4.2|9=53|35=0|34=5|49=EX1|52=20131210-11:48:00.402|56=CLIENT1|10=130|
8=FIX.4.2|9=53|35=0|34=9|49=CLIENT1|52=20131210-11:48:04.842|56=EX1|10=146|
8=FIX.4.2|9=53|35=0|34=6|49=EX1|52=20131210-11:48:30.407|56=CLIENT1|10=139|
8=FIX.4.2|9=54|35=0|34=10|49=CLIENT1|52=20131210-11:48:34.842|56=EX1|10=190|